:100000000C945E000C9486000C9486000C94860080
:100010000C9486000C9486000C9486000C94860048
:100020000C9486000C9486000C9486000C94860038
:100030000C9486000C9486000C9486000C94860028
:100040000C94AA030C9486000C9478030C9452032D
:100050000C9486000C9486000C9486000C94860008
:100060000C9486000C9486000000000024002700F9
:100070002A0000000008000201000003040700003D
:10008000000000000000010204081020408001026E
:1000900004081020010204081020000000002500C0
:1000A00028002B00040404040404040402020202D5
:1000B0000202030303030303F403CD0711241FBE4D
:1000C000CFEFD8E0DEBFCDBF11E0A0E0B1E0E0E6C9
:1000D000F5E102C005900D92AE39B107D9F722E0E3
:1000E000AEE9B1E001C01D92A337B207E1F710E01D
:1000F000CDE5D0E004C02197FE010E94A408CC35D4
:10010000D107C9F70E949B040C94A30A0C94000029
:1001100090E0FC01EE58FF4F2491FC01EA57FF4F9D
:100120003491FC01EC55FF4FE491EE23B9F022230A
:1001300039F02330F1F098F4213009F1223019F12F
:10014000F0E0EE0FFF1FE656FF4FA591B4918FB779
:10015000F894EC9130953E233C938FBF089527305F
:10016000A9F02830C9F0243059F7809180008F7DA4
:1001700003C0809180008F7780938000E1CF84B5A9
:100180008F7784BDDDCF84B58F7DFBCF8091B000AC
:100190008F778093B000D4CF8091B0008F7DF9CF5E
:1001A000AF92BF92CF92DF92EF92FF920F931F9385
:1001B000CF93DF936C017B018B01040F151FEB01C3
:1001C0005E01AE18BF08C017D10759F06991D6017A
:1001D000ED91FC910190F081E02DC6010995892BEC
:1001E00079F7C501DF91CF911F910F91FF90EF90AB
:1001F000DF90CF90BF90AF900895FC01538D448D58
:10020000252F30E0842F90E0821B930B541710F0C1
:10021000CF96089501970895FC01918D828D9817CE
:1002200061F0A28DAE0FBF2FB11D5D968C91928DA6
:100230009F5F9F73928F90E008958FEF9FEF0895D7
:10024000FC01918D828D981731F0828DE80FF11DA0
:10025000858D90E008958FEF9FEF0895FC01918DBB
:10026000228D892F90E0805C9F4F821B91098F73B4
:100270009927089586EB91E00E942E0121E0892BB9
:1002800009F420E0822F089580E090E0892B29F086
:100290000E943A0181110C9400000895FC01A48D84
:1002A000A80FB92FB11DA35ABF4F2C91848D90E098
:1002B00001968F739927848FA689B7892C93A0897B
:1002C000B1898C91837080648C93938D848D981305
:1002D00006C00288F389E02D80818F7D8083089598
:1002E000EF92FF920F931F93CF93DF93EC0181E086
:1002F000888F9B8D8C8D98131AC0E889F98980812D
:1003000085FF15C09FB7F894EE89FF896083E8895F
:10031000F98980818370806480839FBF81E090E051
:10032000DF91CF911F910F91FF90EF900895F62EDE
:100330000B8D10E00F5F1F4F0F731127E02E8C8D78
:100340008E110CC00FB607FCFACFE889F9898081BD
:1003500085FFF5CFCE010E944E01F1CFEB8DEC0F62
:10036000FD2FF11DE35AFF4FF0829FB7F8940B8FDA
:10037000EA89FB8980818062CFCFCF93DF93EC0144
:10038000888D8823B9F0AA89BB89E889F9898C917D
:1003900085FD03C0808186FD0DC00FB607FCF7CF39
:1003A0008C9185FFF2CF808185FFEDCFCE010E9439
:1003B0004E01E9CFDF91CF910895CF93DF9390E085
:1003C000FC01EA57FF4F24918C559F4FFC0184910B
:1003D0008823D1F090E0880F991FFC01E859FF4F66
:1003E000A591B491FC01E656FF4FC591D4916111DE
:1003F0000EC09FB7F8948C91E22FE0958E238C93DA
:100400002881E223E8839FBFDF91CF9108958FB7C2
:10041000F894EC91E22BEC938FBFF6CF8E3008F07E
:100420008E508770806480937C0080917A00806415
:1004300080937A0080917A0086FDFCCF80917800CD
:100440009091790008953FB7F8948091A30190911D
:10045000A401A091A501B091A60126B5A89B05C055
:100460002F3F19F00196A11DB11D3FBFBA2FA92F33
:10047000982F8827BC01CD01620F711D811D911D30
:1004800042E0660F771F881F991F4A95D1F708959C
:10049000CF93DF93EC0188819981009711F00E943E
:1004A0004609198218821D821C821B821A82DF91E2
:1004B000CF910895FC0180819181009711F00C94F7
:1004C000460908950F931F93CF93DF93EC01888122
:1004D0009981009759F02A813B812617370730F020
:1004E00081E0DF91CF911F910F9108958B016F5F94
:1004F0007F4F0E94CF09009759F0998388831B830F
:100500000A832C813D81232B59F7FC011082E8CF0F
:1005100080E0E7CFEF92FF920F931F93CF93DF938B
:100520006115710541F480E0DF91CF911F910F912A
:10053000FF90EF90089541155105B1F07B01EC015A
:100540000C811D81040F151FB8010E9462028823CF
:1005500051F3288139818C819D81B701820F931FCE
:100560000E949C0A1D830C8381E0DECFFC01448144
:1005700055816081718183E592E00C948A02CF936A
:10058000DF93EC01FB0101900020E9F73197AF0107
:10059000461B570B0E948A02811103C0CE010E94A4
:1005A0004802CE01DF91CF910895CF93DF93EC0104
:1005B000FB0144815581608171810E948A02811111
:1005C00003C0CE010E944802CE01DF91CF91089571
:1005D000EF92FF920F931F93CF93DF93EC017B0178
:1005E0008A01BA010E94620281110BC0CE010E94F1
:1005F0004802CE01DF91CF911F910F91FF90EF90B4
:1006000008951D830C83B701888199810E949C0AFB
:10061000F0CFEF92FF920F931F93CF93DF93CDB75D
:10062000DEB762970FB6F894DEBF0FBECDBF8C0168
:10063000CB01F8011182108213821282158214827A
:100640004AE09E012F5F3F4F7901B9010E94E10707
:10065000F70101900020E9F73197AF014E195F09CA
:10066000B701C8010E94E80262960FB6F894DEBF97
:100670000FBECDBFDF91CF911F910F91FF90EF90F3
:100680000895FC0111821082138212821582148255
:10069000FB0101900020E9F73197AF01461B570B92
:1006A0000C94E8021F920F920FB60F9211242F9311
:1006B0003F934F935F936F937F938F939F93AF93EA
:1006C000BF93EF93FF9386EB91E00E944E01FF9161
:1006D000EF91BF91AF919F918F917F916F915F91BA
:1006E0004F913F912F910F900FBE0F901F90189533
:1006F0001F920F920FB60F9211242F938F939F93F7
:10070000EF93FF93E091C601F091C7018081E091E2
:10071000CC01F091CD0182FD1BC090818091CF0171
:100720008F5F8F732091D001821741F0E091CF014C
:10073000F0E0EA54FE4F958F8093CF01FF91EF9147
:100740009F918F912F910F900FBE0F901F90189532
:100750008081F4CF1F920F920FB60F9211242F9326
:100760003F938F939F93AF93BF9380919F019091FD
:10077000A001A091A101B091A20130919E0123E0BE
:10078000230F2D3758F50196A11DB11D20939E0111
:1007900080939F019093A001A093A101B093A20127
:1007A0008091A3019091A401A091A501B091A6010F
:1007B0000196A11DB11D8093A3019093A401A09364
:1007C000A501B093A601BF91AF919F918F913F91E9
:1007D0002F910F900FBE0F901F90189526E8230FB2
:1007E0000296A11DB11DD2CF1092B9011092B8018D
:1007F00088EE93E0A0E0B0E08093BA019093BB0153
:10080000A093BC01B093BD018AE091E09093B70141
:100810008093B60185EC90E09093C3018093C20170
:1008200084EC90E09093C5018093C40180EC90E04B
:100830009093C7018093C60181EC90E09093C90129
:100840008093C80182EC90E09093CB018093CA0121
:1008500086EC90E09093CD018093CC011092CF0173
:100860001092D0011092D1011092D20110925A022E
:1008700010926102109268021092690210926A024C
:1008800010926B0281E08093670280936402109261
:10089000650292E0909366028093590288E190E0AD
:1008A00090935E0280935D020E94AA089093630277
:1008B00080936202009709F435C028E1FC0111928F
:1008C0002A95E9F788E090E090935C0280935B02C0
:1008D00086E090E09093600280935F0280915A02DC
:1008E000882339F061E086E00E94DD0186E00E9405
:1008F0008800EAEAF0E0E491F0E0EE0FFF1FE65630
:10090000FF4F8591949190936D0280936C02ECE877
:10091000F0E0E491E0936E0265E271E083E592E03D
:100920000C94410310925E0210925D0210925C02E0
:1009300010925B02CDCFCF93DF93CDB7DEB76B972D
:100940000FB6F894DEBF0FBECDBF789484B5826039
:1009500084BD84B5816084BD85B5826085BD85B563
:10096000816085BD80916E00816080936E001092E1
:10097000810080918100826080938100809181005C
:1009800081608093810080918000816080938000ED
:100990008091B10084608093B1008091B00081604B
:1009A0008093B00080917A00846080937A00809177
:1009B0007A00826080937A0080917A0081608093CF
:1009C0007A0080917A00806880937A001092C1004A
:1009D000E091C601F091C70182E08083E091C201FD
:1009E000F091C3011082E091C401F091C5018FEC38
:1009F00080831092CE01E091CA01F091CB0186E094
:100A00008083E091C801F091C90180818061808379
:100A1000E091C801F091C901808188608083E091F4
:100A2000C801F091C901808180688083E091C8018C
:100A3000F091C90180818F7D808380915F029091C8
:100A4000600297FD07C061E00E94DD0180915F02B6
:100A50000E94880081E080935A021092A7014424EA
:100A60004A94B3E05B2E612C712C00E010E088E02A
:100A7000382E6091B4017091B501CE0101960E94AB
:100A8000090368E171E0CE0107960E944103BE01AF
:100A90006F5F7F4FCE0107960E94D50264E271E03E
:100AA0000E94BF0222E08335920769F0FC01608159
:100AB00071816115710509F427C24481558183E56F
:100AC00092E00E94E802CE0107960E945A02CE01EF
:100AD00001960E945A0261E070E0CE0101960E94E8
:100AE000090366E271E0CE0107960E944103BE0150
:100AF0006F5F7F4FCE0107960E94D50264E271E0DE
:100B00000E94BF020E94B602CE0107960E945A02BE
:100B1000CE0101960E945A0270E060E0CE0101967B
:100B20000E9409036FE371E0CE0107960E94410322
:100B3000BE016F5F7F4FCE0107960E94D50264E22F
:100B400071E00E94BF020E94B602CE0107960E9489
:100B50005A02CE0101960E945A028FE00E940E02B4
:100B60009093B3018093B20180E10E940E029093B2
:100B7000B1018093B0018EE00E940E027C0190933F
:100B8000AF018093AE0181E10E940E029093AD010E
:100B90008093AC01B701CE0101960E9409036EE576
:100BA00071E0CE0107960E944103BE016F5F7F4F47
:100BB000CE0107960E94D50264E271E00E94BF0256
:100BC0000E94B602CE0107960E945A02CE010196FB
:100BD0000E945A026091B0017091B101CE0101965C
:100BE0000E9409036091B2017091B301CE01079692
:100BF0000E94090365E771E0CE010D960E94410352
:100C0000BE01695F7F4FCE010D960E94D5026AE852
:100C100071E00E94BF02BE016F5F7F4F0E94D5024C
:100C200064E271E00E94BF020E94B602CE010D96FE
:100C30000E945A02CE0107960E945A02CE010196E6
:100C40000E945A026091AC017091AD01CE010196F3
:100C50000E9409036CE871E0CE0107960E944103EF
:100C6000BE016F5F7F4FCE0107960E94D50264E2FE
:100C700071E00E94BF020E94B602CE0107960E9458
:100C80005A02CE0101960E945A02A091AE01B09183
:100C9000AF012FEF30E00E949D08A30192010E9456
:100CA0001608C90137FF04C088279927821B930BB8
:100CB00090E0B0E0A0E0CC24D82EE92EFA2EC82A8D
:100CC000D92AEA2AFB2AC092A801D092A901E0926F
:100CD000AA01F092AB018091B4019091B501019607
:100CE0009093B5018093B401B090A70181E08B0D82
:100CF0008093A70140915D0250915E0270E060E038
:100D000080916202909163020E94950A77276F2D6D
:100D10005E2D4D2D842E30E020E09C2CB0FE3AC09C
:100D200080915B0290915C022817390798F5B92DE4
:100D300080916102A82D882351F0849FB001859F86
:100D4000700D1124A72F8C9DC0011124B92FE091A3
:100D50006702809162029091630260916402E613DF
:100D6000D8C0B901660F771F620F731F860F971FD8
:100D7000E0916402E80FF92FF11D1082E091650205
:100D8000E80FF92FF11DA08360916602860F911D77
:100D9000FC01B083B6942F5F3F4F2830310509F036
:100DA000BDCF8091620290916302892B09F47BC0D0
:100DB0000E942302C0906802D0906902E0906A020B
:100DC000F0906B026C157D058E059F0540F46093D5
:100DD00068027093690280936A0290936B02C090DC
:100DE0006802D0906902E0906A02F0906B026C1980
:100DF0007D098E099F096C32714081059105C0F211
:100E0000F89480915D0290915E029C8B8B8BE091B7
:100E10006202F0916302DF01119680818B8F9091C5
:100E20005902E0916C02F0916D0280916E0299235B
:100E300009F47BC09081982B9A8F908180958923AB
:100E4000898F898D8E8B3D8A5A8D698D4B8D3D8919
:100E50002E898B899C89508347FD252F3A952083C5
:100E6000262F39F0441F00C000006083000000C03E
:100E7000F2CF38E04D9160830000019761F7F09365
:100E80006D02E0936C024B8F3D8B2E8B9C8B8B8B7A
:100E900078940E94230260936802709369028093A1
:100EA0006A0290936B020E9423024B015C0184EF63
:100EB000C82EDD24D394E12CF12C0E942302681962
:100EC00079098A099B09683E734081059105A8F359
:100ED00021E0C21AD108E108F10888EE880E83E00B
:100EE000981EA11CB11CC114D104E104F10429F71E
:100EF0000115110509F4BDCD0E943A01882309F4BA
:100F0000B8CD0E940000B5CD83E592E00E94480272
:100F1000DACDB901660F771F660F771F860F971F0F
:100F2000E80FF92FF11D108223CF9081982B9A8F13
:100F3000908180958923898F898D888F3F8A5A8DEA
:100F4000698D4B8D3F89288D8B899C89508347FD06
:100F5000252F00C000C0208300C000C000C000C01A
:100F600000C060830000262F3A9541F0441F000026
:100F700000C000C000C000C000C0E8CF38E04D9104
:100F800000C0608300C0019709F7F0936D02E09301
:100F90006C024B8F3F8B288F79CF83E592E00E94C4
:100FA0005A0280916202909163020E9446098091E8
:100FB0005F029091600297FD03C060E00C94DD0138
:100FC0000895BB274A3031F4992322F4BDE290956D
:100FD00081959F4F0C94ED07BB27FB015527AA274E
:100FE000880F991FAA1FA41710F0A41B83955051B6
:100FF000B9F7A05DAA3308F0A95DA193009779F72E
:10100000B111B1931192CB010C940608DC01FC01E3
:10101000672F71917723E1F7329704C07C916D932C
:1010200070836291AE17BF07C8F30895052E97FB32
:101030001EF400940E942D0857FD07D00E946C08F2
:1010400007FC03D04EF40C942D0850954095309534
:1010500021953F4F4F4F5F4F089590958095709524
:1010600061957F4F8F4F9F4F08952F923F924F92E0
:101070005F926F927F928F929F92AF92BF92CF9228
:10108000DF92EF92FF920F931F93CF93DF93CDB731
:10109000DEB7CA1BDB0B0FB6F894DEBF0FBECDBFA9
:1010A00009942A88398848885F846E847D848C847A
:1010B0009B84AA84B984C884DF80EE80FD800C8183
:1010C0001B81AA81B981CE0FD11D0FB6F894DEBF66
:1010D0000FBECDBFED010895A1E21A2EAA1BBB1BC6
:1010E000FD010DC0AA1FBB1FEE1FFF1FA217B307F4
:1010F000E407F50720F0A21BB30BE40BF50B661F0A
:10110000771F881F991F1A9469F7609570958095CD
:1011100090959B01AC01BD01CF010895A29FB00144
:10112000B39FC001A39F700D811D1124911DB29F1B
:10113000700D811D1124911D08950E948E08B7FF26
:101140000895821B930B0895EE0FFF1F0590F491F5
:10115000E02D09940F931F93CF93DF938230910575
:1011600010F482E090E0E0917102F091720230E0C0
:1011700020E0B0E0A0E0309799F42115310509F4A2
:101180004AC0281B390B24303105D8F58A819B8150
:101190006115710589F1FB0193838283FE0111C002
:1011A000408151810281138148175907E0F04817A7
:1011B000590799F4109761F012960C9312971396B1
:1011C0001C933296CF01DF91CF911F910F9108951B
:1011D0000093710210937202F4CF2115310551F082
:1011E0004217530738F0A901DB019A01BD01DF0165
:1011F000F801C1CFEF01F9CF909372028093710291
:10120000CDCFFE01E20FF31F81939193225031095C
:1012100039832883D7CF20916F0230917002232B1E
:1012200041F4209102013091030130937002209328
:101230006F0220910001309101012115310541F427
:101240002DB73EB74091040150910501241B350B89
:10125000E0916F02F0917002E217F307A0F42E1BE9
:101260003F0B2817390778F0AC014E5F5F4F24170A
:10127000350748F04E0F5F1F5093700240936F0286
:10128000819391939FCFF0E0E0E09CCFCF93DF93E9
:101290000097E9F0FC01329713821282A09171024B
:1012A000B0917202ED0130E020E01097A1F42081AE
:1012B0003181820F931F20916F02309170022817A5
:1012C000390709F061C0F0937002E0936F02DF917B
:1012D000CF910895EA01CE17DF07E8F54A815B81D7
:1012E0009E0141155105B1F7E901FB83EA8349915C
:1012F0005991C40FD51FEC17FD0761F480819181CE
:101300000296840F951FE9019983888382819381D6
:101310009B838A83F0E0E0E012968D919C91139775
:101320000097B9F52D913C911197CD010296820F4E
:10133000931F20916F02309170022817390739F6F8
:10134000309751F51092720210927102B0937002B0
:10135000A0936F02BCCFD383C28340815181840F9D
:10136000951FC817D90761F44E5F5F4F8881998137
:10137000480F591F518340838A819B8193838283C5
:101380002115310509F0B0CFF0937202E09371029C
:101390009ECFFD01DC01C0CF13821282D7CFB0E017
:1013A000A0E0E5EDF9E00C9437088C01009751F4CA
:1013B000CB010E94AA088C01C801CDB7DEB7E0E1DD
:1013C0000C945308FC01E60FF71F9C0122503109D1
:1013D000E217F30708F49DC0D901CD91DC91119774
:1013E000C617D70798F0C530D10530F3CE01049762
:1013F0008617970708F3C61BD70B2297C193D19383
:101400006D937C93CF010E944609D6CF5B01AC1A45
:10141000BD0A4C018C0E9D1EA0917102B09172020A
:10142000512C412CF12CE12C109731F580916F0259
:10143000909170028815990509F05CC04616570610
:1014400008F058C08091000190910101009741F48B
:101450008DB79EB74091040150910501841B950BF7
:10146000E817F90708F055C0F0937002E0936F0297
:10147000F90171836083A0CF8D919C911197129691
:101480006C90129713967C901397A815B90559F58F
:101490006C0142E0C40ED11CCA14DB0420F1AC0183
:1014A0004A195B09DA011296159780F062827382FD
:1014B00051834083D9016D937C93E114F10471F061
:1014C000D7011396FC93EE93129776CF22968C0F4A
:1014D0009D1FF90191838083F301EFCFF093720296
:1014E000E093710269CF4816590608F42C017D017A
:1014F000D3019ACFCB010E94AA087C01009749F042
:10150000AE01B8010E948C0AC8010E9446098701F9
:1015100053CF10E000E050CFFB01DC0102C001908E
:101520000D9241505040D8F70895DC0101C06D93F1
:1015300041505040E0F70895FB01DC0101900D920D
:101540000020E1F7089510E0CDE5D0E004C0FE01F1
:101550000E94A4082196CE35D107C9F7F894FFCF91
:10156000000073028000000000007001D000FD0048
:10157000BD012E010C0120010A4C4F4720696E6409
:10158000657820000A00537461747573206F6620BB
:1015900072756E6E696E6720626F6F6C3A200053D1
:1015A0007461747573206F6620627574746F6E5009
:1015B00072657373656420626F6F6C3A2000506FC0
:1015C000736974696F6E206F6620726567756C61F0
:1015D00074653A2000506F736974696F6E206F668E
:1015E00020627574746F6E3A20002C00427574741A
:0E15F0006F6E507265737365643F3A200000A1
:00000001FF
